:1000B200C3EBB1EDA3BAB0B4BCFC31BFAAC6F4BA6B
:1000C200CDD4DDCDA3A3ACB0B4BCFC32C7E5C1E353
:1000D2000D0A005354415455533A2053544F500D76
:1000E2000A000D0DB5B1C7B0BCC6CAB13A200D00A9
:1000F2005354415455533A2053544152540D0A001B
:100102000D0A5354415455533A20434C4541520D24
:020112000A00E1
:0802CA00060A050805080806F4
:0802D3001201F712022480FB66
:0E02BB00E4FFFE0FBF00010EBE75F8BF31F567
:0102C9002212
:1001F700759850758921758BFD758DFD758CD97531
:100207008AF0D28EC28CD2ACD2A9D2A8D2AAD28876
:0D021700D28AD2AF7BFF7A0079B202029743
:10022400E4F509C374059509240AF8E6FF7E001273
:1002340002AAEF1202460509E509D3940540E40237
:0202440002BBFB
:10024600E4FEEFA806088002C313D8FC30E004D20F
:0D025600B68002C2B6D2B7C2B70EBE08E530
:010263002278
:100264007F2D12027608E62430FF12027608E62477
:0202740030FF59
:080276008F993099FDC2992215
:1002970012027EFF600C120276740129F9E43AFA21
:0302A70080EE22C4
:03000B0002016E81
:10016E00C0E0C0D075D000C000758CD9758AF0780B
:10017E000F06E6640A7029F61806E6640A7021F680
:10018E001806E6640A7019F61806E6B4061276002A
:10019E001806E6B40A0A76001806E6B406027600D9
:0701AE00D000D0D0D0E032F8
:03000300020114E3
:10011400C0E0C083C082C0D075D000C000C001C0A0
:1001240002C003C007308C24C28C7BFF7A0079D5CF
:100134001202977A0079E4120297780A12026A127C
:1001440002641202647F0A120276800BD28C7BFF57
:100154007A0079F2120297D007D003D002D001D0EE
:0A01640000D0D0D082D083D0E0326A
:030013000201B532
:1001B500C0E0C083C082C0D075D000C000C001C0FF
:0701C50002C003C006C007E1
:1001CC00C28CE4FF7E06780AE4F608DEFC7BFF7A3C
:0601DC00017902120297F6
:1001E200D007D006D003D002D001D000D0D0D08228
:0501F200D083D0E032D3
:03002300020016C2
:09001600309805C2988599083262
:1002AA00EF9002B193FF223F065B4F666D7D077F99
:0102BA006FD4
:03000000020026D5
:0C002600787FE4F6D8FD75810F02006DB4
:10027E00BB010689828A83E0225002E722BBFE027E
:09028E00E32289828A83E49322B1
:100032000202D3E493A3F8E493A34003F68001F20F
:1000420008DFF48029E493A3F85407240CC8C333CF
:10005200C4540F4420C8834004F456800146F6DF9E
:10006200E4800B01020408102040809002CAE47E62
:10007200019360BCA3FF543F30E509541FFEE49393
:10008200A360010ECF54C025E060A840B8E493A35A
:10009200FAE493A3F8E493A3C8C582C8CAC583CA85
:1000A200F0A3C8C582C8CAC583CADFE9DEE780BE3D
:0102D200002B
:00000001FF
