:10030300021A000002080024020C0030021C00162E
:10031300020A00000C1E0002000200040008000391
:1003230000060C0E000000000000000000000000AA
:1003340075A887758815758901758CD9758AF01229
:0403440002CE80FB6A
:040006007FC8DFFED2
:01000A0022D3
:1002CE007590FEE4F52AE52A25E0241EF8E6FE08E0
:1002DE00E6FF120348E52A25E0240EF808E64FF55E
:1002EE00A0120006E59025E004F590052AE52AC344
:0402FE00940640D250
:0103020022D8
:03000B0002021ED0
:10021E00C0E0C0F0C083C082C0D075D000C000C0A6
:10022E0001C002C003C004C005C006C007758CD94A
:10023E00758AF0050BE50B7002050A6464450A70B9
:10024E000FF50AF50B0509E509700205081200A263
:10025E00D007D006D005D004D003D002D001D000F4
:0B026E00D0D0D082D083D0F0D0E0329E
:030003000201A94E
:1001A900C0E0C0D075D000C007120006E51A705E25
:1001B900E51B14601B14603824027052750E00751B
:1001C9000F80751000751180751A00751B01803E2E
:1001D900750E00750F007510007511007512007508
:1001E9001380751400751580751A00751B02801E21
:1001F900750E00750F0075100075110075120075E8
:100209001300751400751500751A00751B00D007C9
:05021900D0D0D0E0325E
:0300130002012DBA
:10012D00C0E0C0F0C083C082C0D075D000C000C098
:10013D0001C002C003C004C005C006C007120006FE
:10014D00E51B6401451A7018E51D6417451C700602
:10015D00F51CF51D8028051DE51D7022051C801E52
:10016D00E51B6402451A7016E50D643B450C7006DF
:10017D00F50CF50D8008050DE50D7002050C12004E
:10018D00A2D007D006D005D004D003D002D001D024
:0C019D0000D0D0D082D083D0F0D0E0326F
:1000A200E509643C45087028F508F509050DE50DDC
:1000B2007002050C643C450C7016F50CF50D051D1F
:1000C200E51D7002051C6418451C7004F51CF51D25
:1000D200AE1CAF1D7C007D0A1202798E1E8F1FAEF0
:1000E2001CAF1D7C007D0A1202798C208D21AE0C82
:1000F200AF0D7C007D0A1202798E228F23AE0CAFE7
:100102000D7C007D0A1202798C248D25AE08AF0980
:100112007C007D0A1202798E268F27AE08AF097CF9
:0B012200007D0A1202798C288D292232
:10034800EF90034F93FF223F065B4F666D7D077F5B
:010358006F35
:03000000020016E5
:0C001600787FE4F6D8FD75812A02005DB9
:10027900BC000BBE0029EF8DF084FFADF022E4CC69
:10028900F875F008EF2FFFEE33FEEC33FCEE9DEC32
:10029900984005FCEE9DFE0FD5F0E9E4CEFD22ED78
:1002A900F8F5F0EE8420D21CFEADF075F008EF2FC2
:1002B900FFED33FD4007985006D5F0F222C398FDB3
:0502C9000FD5F0EA2250
:10002200020334E493A3F8E493A34003F68001F2BD
:1000320008DFF48029E493A3F85407240CC8C333DF
:10004200C4540F4420C8834004F456800146F6DFAE
:10005200E4800B0102040810204080900303E47E38
:10006200019360BCA3FF543F30E509541FFEE493A3
:10007200A360010ECF54C025E060A840B8E493A36A
:10008200FAE493A3F8E493A3C8C582C8CAC583CA95
:10009200F0A3C8C582C8CAC583CADFE9DEE780BE4D
:0103330000C9
:00000001FF
