:100848003F065B4F666D7D077F6F777C395E3E3D67
:040858003B372F1FDC
:08085C00061B3F000000000034
:100003007590FFE4F514F515F516F517F50AF50BDC
:10001300F50CF50DF508F50EF50FF518F519F509BD
:100023001207278F08E50865097003020524E50810
:10003300C39400405EE508D394095057E519451869
:100043007051AE0AAF0BFC7D0A12052AEF2508F5A5
:100053000BEC3EF50A851412851513D3E5139400B2
:10006300E512648094804018AF13741A2FF8E6FEEB
:10007300741B2FF8A606E513151370DF151280DB2A
:10008300E50890084893F51B0515E51570660514FA
:10009300020521E508C3940A405DE508D3940D5099
:1000A30056E51945187050F50E85080F851412850D
:1000B3001513D3E5139400E512648094804018AFC0
:1000C30013741A2FF8E6FE741B2FF8A606E5131512
:1000D3001370DF151280DBE50890084893F51B05C4
:1000E30015E51570020514851416F5170519E5199C
:1000F30070020518020521E508C394004060E50875
:10010300D394095059E519640145187051AE0CAFE9
:100113000DFC7D0A12052AEF2508F50DEC3EF50CC2
:10012300851412851513D3E5139400E512648094A6
:10013300804018AF13741A2FF8E6FE741B2FF8A62D
:1001430006E513151370DF151280DBE508900848E8
:1001530093F51B0515E51570020514020521E50845
:10016300640E60030204EBE51964014518600302A1
:1001730004EBE50F640A450E700EE50B250DF51132
:10018300E50A350CF5108043E50F640B450E700F3F
:10019300C3E50B950DF511E50A950CF510802CE5DB
:1001A3000F640C450E700DAC0CAD0DAE0AAF0B1207
:1001B300052A8013E50F640D450E700FAC0CAD0DD1
:1001C300AE0AAF0B12053C8E108F11E4F512F51336
:1001D300741B2513F8E4F60513E513700205126486
:1001E30006451270EBC3E511940AE510940050081C
:1001F300E5119008480204D1C3E5119464E5109415
:10020300005032AE10AF117C007D0A12053C7448D9
:100213002FF58274083EF583E493F51CAE10AF11FD
:100223007C007D0A12053C74482DF58274083CF568
:1002330083E40204D1C3E51194E8E5109403505814
:10024300AE10AF117C007D6412053C74482FF5821B
:1002530074083EF583E493F51DAE10AF117C007D69
:100263006412053C7E007F0ACFCDCFCECCCE1205E3
:100273003C74482FF58274083EF583E493F51CAE75
:1002830010AF117C007D0A12053C74482DF5827471
:10029300083CF583E40204D1C3E5119410E51094FE
:1002A300274003020327AE10AF117C037DE812053C
:1002B3003C74482FF58274083EF583E493F51EAE33
:1002C30010AF117C037DE812053C7E007F64CFCD27
:1002D300CFCECCCE12053C74482FF58274083EF580
:1002E30083E493F51DAE10AF117C007D6412053CD1
:1002F3007E007F0ACFCDCFCECCCE12053C74482FE3
:10030300F58274083EF583E493F51CAE10AF117CBF
:10031300007D0A12053C74482DF58274083CF58370
:10032300E40204D1AE10AF11E4FCFD7BA07A867920
:1003330001F8D312059150030203E2AE10AF117C12
:10034300277D1012053C74482FF58274083EF5830F
:10035300E493F51FAE10AF117C277D1012053C7E90
:10036300037FE8CFCDCFCECCCE12053C74482FF51A
:100373008274083EF583E493F51EAE10AF117C033F
:100383007DE812053C7E007F64CFCDCFCECCCE126C
:10039300053C74482FF58274083EF583E493F51DFC
:1003A300AE10AF117C007D6412053C7E007F0ACF46
:1003B300CDCFCECCCE12053C74482FF58274083EC7
:1003C300F583E493F51CAE10AF117C007D0A120592
:1003D3003C74482DF58274083CF583E40204D1AEE5
:1003E30010AF11E4FCFD7B407A42790FF8D312057C
:1003F3009150030204D4AE10AF11E4FCFD7BA07A4C
:10040300867901F812079574482FF58274083EF532
:1004130083E493F520AE10AF11E4FCFD7BA07A8654
:100423007901F8120795AC00AD01AE02AF03E47B8E
:10043300107A27F9F812079574482FF58274083E4D
:10044300F583E493F51FAE10AF117C277D101205E1
:100453003C7E037FE8CFCDCFCECCCE12053C744893
:100463002FF58274083EF583E493F51EAE10AF11A9
:100473007C037DE812053C7E007F64CFCDCFCECCDC
:10048300CE12053C74482FF58274083EF583E4933D
:10049300F51DAE10AF117C007D6412053C7E007F1C
:1004A3000ACFCDCFCECCCE12053C74482FF5827443
:1004B300083EF583E493F51CAE10AF117C007D0A72
:1004C30012053C74482DF58274083CF583E493F5DA
:1004D3001BE4F518F519F514F515F516F517F50AD6
:1004E300F50BF50CF50D8036E508B40F31E4F5187E
:1004F300F519F514F515F516F517F50AF50BF50CC1
:10050300F50DF512F513741B2513F8E4F60513E541
:1005130013700205126406451270EB751B3F8508C4
:070523000912081502002374
:10081500E4F51AE4F5A0741B251AF8E6F5A0C374EF
:1008250005951AFFE49400FE74562FF58274083E70
:10083500F583E493F5B0120865051AE51AC3940625
:0208450040D1A0
:01084700228E
:1007D9007590F0E59054F064F0602E120865E5908C
:1007E90054F064F060237FFEEF30E41DF590E5904E
:1007F90054F064F0600BE59054F0FEEF540F4EFF97
:0B08090022EF25E04401FF80DF7F00AC
:0108140022C1
:040865007FC8DFFE6B
:01086900226C
:100727001207D9EF1205A7078F7707837B07777D16
:10073700076B7E078CB70780BB0774BD0768BE07CA
:1007470089D7077DDB0771DD0765DE0786E7077A4F
:10075700EB076EED0762EE000007927F07227F0826
:10076700227F09227F0D227F04227F05227F062216
:100777007F0C227F01227F02227F03227F0B227FB1
:0E0787000F227F00227F0E227F0A227FFF2298
:0300000002069B5A
:0C069B00787FE4F6D8FD7581200206E2AD
:10052A00EF8DF0A4A8F0CF8CF0A428CE8DF0A42EE5
:02053A00FE229F
:10053C00BC000BBE0029EF8DF084FFADF022E4CCA3
:10054C00F875F008EF2FFFEE33FEEC33FCEE9DEC6C
:10055C00984005FCEE9DFE0FD5F0E9E4CEFD22EDB2
:10056C00F8F5F0EE8420D21CFEADF075F008EF2FFC
:10057C00FFED33FD4007985006D5F0F222C398FDED
:05058C000FD5F0EA228A
:10079500C2D5E830E70FB2D5E4C39BFBE49AFAE48F
:1007A50099F9E498F8EC30E717B2D51207CB1206A1
:1007B50009E4C39BFBE49AFAE499F9E498F8800309
:1007C50012060930D50DE4C39FFFE49EFEE49DFDAE
:0407D500E49CFC2282
:10059100EB9FF5F0EA9E42F0E99D42F0EC6480C8E1
:0605A10064809845F02281
:1005A700D083D082F8E4937012740193700DA3A3E3
:1005B70093F8740193F5828883E4737402936860F7
:0605C700EFA3A3A380DFF7
:1006A700020003E493A3F8E493A34003F68001F266
:1006B70008DFF48029E493A3F85407240CC8C33354
:1006C700C4540F4420C8834004F456800146F6DF23
:1006D700E4800B010204081020408090085CE47E4F
:1006E700019360BCA3FF543F30E509541FFEE49318
:1006F700A360010ECF54C025E060A840B8E493A3DF
:10070700FAE493A3F8E493A3C8C582C8CAC583CA09
:10071700F0A3C8C582C8CAC583CADFE9DEE780BEC1
:010864000093
:1005CD0075F008758200EF2FFFEE33FECD33CDCCE5
:1005DD0033CCC58233C5829BED9AEC99E582984068
:1005ED000CF582EE9BFEED9AFDEC99FC0FD5F0D645
:1005FD00E4CEFBE4CDFAE4CCF9A88222B800C1B96F
:10060D000059BA002DEC8BF084CFCECDFCE5F0CBAC
:10061D00F97818EF2FFFEE33FEED33FDEC33FCEBE5
:10062D0033FB10D703994004EB99FB0FD8E5E4F9A0
:10063D00FA227818EF2FFFEE33FEED33FDEC33FC8D
:10064D00C933C910D7059BE99A4007EC9BFCE99A81
:10065D00F90FD8E0E4C9FAE4CCFB2275F010EF2FC6
:10066D00FFEE33FEED33FDCC33CCC833C810D707C6
:10067D009BEC9AE899400AED9BFDEC9AFCE899F801
:0E068D000FD5F0DAE4CDFBE4CCFAE4C8F92294
:00000001FF
