:10001600492D4C4F56452D594F552100485553549F
:100026002D4E4955424900575548414E2D4A4941A2
:10003600594F550044414E5049414E4A49005A488D
:100046004F4E4747554F2D4E49554249002D2D00DD
:10005600204020C0247E24402440A43F2422242281
:100066002020FF03200C22102C20204020F8000026
:1000760010046004027C0C03C08002801E40E22053
:100086000213020C0213E2201E40008000800000D2
:10009600800080008000800080008000800080005A
:1000A60080008000800080008000800080000000CA
:1000B60010800C404420441E442044404540C67FE6
:1000C6004444444444444444444414400C400000E2
:1000D600108010401030FF0F10401080F07F00009D
:1000E6000000F87F082008200820F87F00000000A4
:1000F60010046004027E8C010000F0FF10421042E2
:100106001042FF7F104210421042F0FF0000000034
:100116000000FC0F04040404FC0F0020C210BA08FF
:10012600820482428281FE7F82008200800000007B
:1001360000000000000000000000000000000000B9
:10014600000000000000F83300000000000000007E
:10015600000010000C00020010000C00020000005D
:1001660000004004C03F78044004C03F780400000B
:100176000000701888208820FCFF0821301E00002F
:10018600F0000831F00C8003601E1821001E0000EC
:10019600001EF0210823882C70190027002100106A
:1001A600000012000E000000000000000000000029
:1001B600000000000000E0071818042002400000BC
:1001C6000000024004201818E007000000000000AC
:1001D600400240028001F00F800140024002000010
:1001E6000000000100010001E00F00010001000114
:1001F60000000090007000000000000000000000F9
:1002060000000001000100010001000100010000E2
:100216000000003000300000000000000000000078
:100226000000006000180007C0003800040000004D
:100236000000E00F1010082008201010E00F00004A
:100246000000000010201020F83F002000200000D1
:10025600000070300828082408220821F030000029
:10026600000030180820082108218822701C000090
:1002760000000006800540243024F83F00240024B6
:100286000000F8198820882088200811080E000030
:100296000000E00F1011882088209020001F000029
:1002A600000018000800083E8801680018000000D9
:1002B6000000701C8822082108218822701C00007A
:1002C6000000F0010812082208221011E00F0000B9
:1002D600000000000000C030C03000000000000038
:1002E60000000000000080E00000000000000000A8
:1002F60000000001800240042008101008200000C1
:10030600000040024002400240024002400200005B
:1003160000000820101020084004800200010000A0
:1003260000007000480008300837880070000000A0
:10033600C0073018C8272828E82F1028E017000023
:100346000020003CC0233802E002002700380020CD
:100356000820F83F8820882088207011000E0000B1
:10036600C0073018082008200820081038080000A8
:100376000820F83F0820082008201010E00F000091
:100386000820F83F88208820E8230820101800005D
:100396000820F83F88208800E803080010000000C5
:1003A600C0073018082008200822381E0002000066
:1003B6000820F83F0821000100010821F83F082025
:1003C600000008200820F83F082008200000000050
:1003D60000C0008008800880F87F08000800000040
:1003E6000820F83F8820C001282618380820000079
:1003F6000820F83F082000200020002000300000E0
:100406000820F83FF801003EF801F83F08200000F8
:100416000820F83F3020C00000070818F83F080001
:10042600E00F10100820082008201010E00F000030
:100436000820F83F0821080108010801F000000023
:10044600E00F10100828082808301050E04F000070
:100456000820F83F882088008803880C7030002028
:10046600000070388820082108210822381C000066
:10047600180008000820F83F0820080018000000AF
:100486000800F81F0820002000200820F81F080098
:100496000800780088070038000EC80138000800F8
:1004A6000800F803003EF801003EF80308000000CB
:1004B60008201830682C80038003682C1830082028
:1004C60008003800C820003FC82038000800000097
:1004D6001020083808260821C820382008180000EF
:1004E600000000000000FE7F0240024002400000C3
:1004F600000004003800C0010006003800C00000FB
:100506000000024002400240FE7F000000000000A2
:1005160000000000040002000200040000000000C9
:1005260000800080008000800080008000800080C5
:1005360000000200020004000000000000000000AD
:1005460000000019802480248012003F0020000053
:100556001000F03F0011802080200011000E0000E6
:100566000000000E00118020802080200011000075
:100576000000001F8020802080209010F03F002087
:100586000000001F8024802480248024001700009F
:10059600000080208020E03F902090202000000076
:1005A6000000006B809480948094809380600000AB
:1005B6001020F03F0021800080008020003F0020B6
:1005C600000080209820983F0020002000000000B6
:1005D600000000C0008080809880987F00000000A6
:1005E6001020F03F00240006802980308020000083
:1005F600000010201020F83F00200020000000001E
:100606008020803F80208000803F80208000003F47
:100616008020803F0021800080008020003F002055
:100626000000001F8020802080208020001F000006
:10063600808080FF0091802080200011000E000045
:100646000000000E001180208020009180FF0080B5
:1006560080208020803F00218020800080010000D3
:100666000000003380248024802480248019000028
:10067600000080008000E01F802080200010000025
:100686008000801F0020002000208010803F002076
:1006960080008003800C0030800C80038000000006
:1006A6008001800E0030800C8007003880068001B3
:1006B600000080208031800E002E803180200000D6
:1006C6008000808180860078001880068001800086
:1006D600000080218030802C802280218030000024
:1006E60000000000000000000001FC3E0240024045
:1006F6000000000000000000FFFF000000000000F6
:1007060002400240FC3E0001000000000000000024
:1007160000000200010002000200040002000000C6
:100D12000A2C000102030405060708090228000044
:080D2200022A00000226000075
:100CF70075A887758815758901758C3D758AB01239
:0B0D07000B247F057E00120CD780F447
:100B2400E52B452A700CFB7A00792C7D071209719C
:100B34008067E52B6401452A700D7BFF7A007916E6
:100B44007D0B12072E8052E52B6402452A700D7B23
:100B5400FF7A0079227D0A12072E803DE52B64037B
:100B6400452A700D7BFF7A00792D7D0C12072E80AB
:100B740028E52B6404452A700D7BFF7A00793A7DC1
:100B84000912072E8013E52B6405452A700E7BFF9E
:0D0B94007A0079447D0E12072E1200062211
:100CD700E4FDFCC3ED9FEC9E5015E4FAFB0BBB0053
:0F0CE700010ABA54F8BBEAF50DBD00010C80E418
:010CF60022DB
:03000B00020BA144
:100BA100C0E0C0F0C083C082C0D075D000C000C01A
:100BB10001C002C003C004C005C006C007758C3D5A
:100BC100758AB00527E5277002052664207004E5C3
:100BD100266403702CF526F527E52945287022FBAC
:100BE1007A00792CFD120971120726E52B6405455F
:100BF1002A7006F52AF52B8008052BE52B700205D6
:100C01002AD007D006D005D004D003D002D001D01D
:0C0C110000D0D0D082D083D0F0D0E032F0
:03000300020CB438
:100CB400C0E0E529640145287010F528F529758CF4
:100CC4003D758AB0F526F52780067528007529013B
:030CD400D0E0323B
:03001300020C1DBF
:100C1D00C0E0C0F0C083C082C0D075D000C000C09D
:100C2D0001C002C003C004C005C006C007E52964A9
:100C3D00014528701EC3E52B9405E52A9400500A42
:100C4D00052BE52B700A052A8006752A00752B00E9
:100C5D00120726D007D006D005D004D003D002D07D
:0E0C6D0001D000D0D0D082D083D0F0D0E032C1
:040006007FC8DFFED2
:01000A0022D3
:080971008B1C8A1D891E8D1FDD
:10097900E4F522E51F14C36480F8E52264809840F9
:1009890003020A97E4F521E52175F00A84F5237538
:1009990024FF7525FEE4F520E5202523FFE433FE39
:1009A900C3EF9410EE64809480504A759001E4F589
:1009B900A0AB1CAA1DA91E852282F583120C7BFF00
:1009C9003395E0FEEF7805C333CE33CED8F9FF2453
:1009D90056F58274003EF583E520252375F0021251
:1009E9000CA8E493F5A0759002E4F5A074572FF5CF
:1009F9008274008049759001E4F5A0852282F5830F
:100A0900A3AB1CAA1DA91E120C7BFF3395E0FEEFB8
:100A19007805C333CE33CED8F9FF2436F582740076
:100A29003EF583E520252375F002120CA8E493F521
:100A3900A0759002E4F5A074372FF58274003EF595
:100A490083E520252375F002120CA8E493F5A0751F
:100A590090038525A0759004E524F5A0E4F590E5BB
:100A69002525E0FFE52433F524EF4401F52512009F
:100A7900060520E520C3941050030209A10521E5CC
:0E0A890021C394A05003020990052202097CAB
:010A9700223C
:080726007BFF7A0079537D028C
:08072E008B1C8A1D891E8D1F22
:10073600E4F522E51FA2E713C36480F8E52264808E
:10074600984003020970E4F521E52175F01484F55B
:10075600237524FF7525FEE4F520E520C3940840A3
:1007660003020849E5202523FFE433FEC3EF94087E
:10077600EE648094805064759001E4F5A0AB1CAAE9
:100786001DA91E75F002E522A4F58285F083120CE0
:100796007BFF3395E0FEEFC4F8540FC868FDEEC446
:1007A60054F048FC74362DF58274FF3CF583E52041
:1007B6002523FFE433FEEF25E0FFEE33FEE5822F2F
:1007C600F582E5833EF583E493F5A0759002E4F5A2
:1007D600A074372DF58274FF020920759001E4F5A7
:1007E600A0AB1CAA1DA91E75F002E522A42401F5E2
:1007F60082E435F0F583120C7BFF3395E0FEEFC4FF
:10080600F8540FC868FDEEC454F048FC74262DF564
:100816008274FF3CF583E5202523FFE433FEEF25B4
:10082600E0FFEE33FEE5822FF582E5833EF583E4B5
:1008360093F5A0759002E4F5A074272DF58274FF58
:10084600020920E520252324F8C3940850677590F3
:1008560001E4F5A0AB1CAA1DA91E75F002E522A4B1
:100866002401F582E435F0F583120C7BFF3395E025
:10087600FEEFC4F8540FC868FDEEC454F048FC748B
:10088600262DF58274FF3CF583E5202523FFE4330E
:10089600FEEF25E0FFEE33FEE5822FF582E5833E8F
:1008A600F583E493F5A0759002E4F5A074272DF581
:1008B6008274FF8065759001E4F5A0AB1CAA1DA9A2
:1008C6001E75F002E522A42402F582E435F0F583D4
:1008D600120C7BFF3395E0FEEFC4F8540FC868FD99
:1008E600EEC454F048FC74162DF58274FF3CF58373
:1008F600E5202523FFE433FEEF25E0FFEE33FEE59A
:10090600822FF582E5833EF583E493F5A075900288
:10091600E4F5A074172DF58274FF3CF583E5822F6C
:10092600F582E5833EF583E493F5A075900385256E
:10093600A0759004E524F5A0E4F590E52525E0FFF3
:10094600E52433F524EF4401F5251200060520E5DC
:1009560020C3941050030207600521E521C394A02B
:0A096600500302074F052202073973
:010970002264
:03000000020A9859
:0C0A9800787FE4F6D8FD758135020ADF96
:100C7B00BB010CE58229F582E5833AF583E022502E
:100C8B0006E92582F8E622BBFE06E92582F8E22278
:0D0C9B00E58229F582E5833AF583E4932292
:0C0CA800A42582F582E5F03583F5832257
:100AA400020CF7E493A3F8E493A34003F68001F265
:100AB40008DFF48029E493A3F85407240CC8C33353
:100AC400C4540F4420C8834004F456800146F6DF22
:100AD400E4800B0102040810204080900D12E47E93
:100AE400019360BCA3FF543F30E509541FFEE49317
:100AF400A360010ECF54C025E060A840B8E493A3DE
:100B0400FAE493A3F8E493A3C8C582C8CAC583CA08
:100B1400F0A3C8C582C8CAC583CADFE9DEE780BEC0
:010D2A0000C8
:00000001FF
