:10016800B4AEBFDAD7F7D2B5A1A2B9CBD0F9A1A264
:10017800553230313731333439390A0A000D0DCA56
:10018800E4C8EBB8F1CABDC8E7CFC2A3BA000D0DE9
:1001980020CAB1D6D3D0A3CAB1A3BA6A202B20787B
:1001A8007878787878202B2065000D0D20C4D6D675
:1001B800D3C9E8D6C3A3BA6E202B207878787820E4
:1001C8002B20650D000D0DD6D8D6C3CAB1BCE4B33B
:1001D800C9B9A63A200D000D0D20C4D6D6D3C9E85A
:1001E800D6C3A3BA6E202B2078787878202B206588
:1001F800200D000D0DC9E8D6C3C4D6D6D3B3C9B9EE
:10020800A6A3BA0D000D0DCAE4C8EBB8F1CABDB477
:06021800EDCEF30A0A001E
:10042D00061B02020408030604210000000001124D
:0D043D000002100000021300000215000074
:0800030012036812031B80FBCD
:10036800D290759850758921D2A9758BFD758DFD30
:10037800758C3C758AB0D28ED28CD2ACD2AF7BFF52
:100388007A0179681203F17BFF7A0179851203F10A
:100398007BFF7A0179961203F17BFF7A0179B20229
:0203A80003F15F
:10031B00E4F518E51825E0FFC374049F241BF8E6E9
:10032B00C454F0FEC374059F241BF8EE46FF120362
:10033B00AA0518E518D3940240D912000E791BE7D1
:10034B00782166701509E70866700F09E708667073
:0C035B000909E708667003C29022D290E6
:010367002273
:0E000E00E4FFFE0FBF00010EBE4EF8BF21F54D
:01001C0022C1
:0203AA008F19A9
:1003AC00E4F51AAF1AE519A807088002C313D8FCA4
:1003BC00FF7E00120464EF4E6004D2B68002C2B617
:0D03CC00D2B7C2B7051AE51AD3940740D680
:0103D9002201
:10040400E62430FF12042508E62430FF1204257F79
:100414002D12042508E62430FF12042508E62430B2
:01042400FFD8
:080425008F993099FDC2992264
:1003DA007F0A1204257A0179851203F17A01799646
:0703EA001203F17A0179DF33
:1003F10012044BFF600C120425740129F9E43AFA46
:0304010080EE2268
:03000B000202AA44
:1002AA00C0E0C0D075D000C000C007758C3C758A0C
:1002BA00B00511E51170020510641445107049F576
:1002CA0010F511782006E6640A703DF61806E66411
:1002DA00067035F61806E6640A702DF61806E66406
:1002EA00067025F61806E6FFB40A0E18E6C394024D
:1002FA0050070876001806800F781BE6B40209EF4B
:10030A00B404057600087600D007D000D0D0D0E03B
:01031A0032B0
:03002300020026B2
:10002600C0E0C083C082C0D075D00820980302010A
:100036005FC298859917AF17120425E517D394392F
:10004600500DE517C3943040067E007F0180047E84
:10005600007F00E5177C00B46E047D0180027D0000
:10006600EC4EFEED4FFFE5177C00B46A047D01807F
:10007600027D00EC4EFEED4FFFE5177C00B46504F3
:100086007D0180027D00EC4EFEED4F4E70030201B5
:1000960053E517B46A05751201C28CE517B46E03F1
:1000A600751202E5176465703EE51264017018F575
:1000B60013F5147BFF7A0179CD1203F1781B120434
:1000C600041204131203DAE51264027015F515F52D
:1000D600167BFF7A0179FB1203F1782112040412D0
:1000E60003DA751200D28CE517D39439502BE51735
:1000F600C394304024E512B4011FC3E5149406E509
:100106001394005014E51724D0FF741B2514F8A689
:100116000F0514E51470020513E517D39439503909
:10012600E517C394304032E5126402702CE516944C
:1001360004E51594005022E51724D0FF74212516F6
:10014600F8A60F0516E51670100515800C7BFF7ACC
:1001560002790D1203F11203DFD0D0D082D083D002
:02016600E03285
:0804640075F002EF84AFF022F5
:0300000002021EDB
:0C021E00787FE4F6D8FD758124020265AB
:10044B00BB010689828A83E0225002E722BBFE02AF
:09045B00E32289828A83E49322E2
:10022A00020003E493A3F8E493A34003F68001F2E7
:10023A0008DFF48029E493A3F85407240CC8C333D5
:10024A00C4540F4420C8834004F456800146F6DFA4
:10025A00E4800B010204081020408090042DE47E03
:10026A00019360BCA3FF543F30E509541FFEE49399
:10027A00A360010ECF54C025E060A840B8E493A360
:10028A00FAE493A3F8E493A3C8C582C8CAC583CA8B
:10029A00F0A3C8C582C8CAC583CADFE9DEE780BE43
:01044A0000B1
:00000001FF
