:1005BC0002200000021000000212000002140000D1
:1005CC000216000002220000040C000000000408C7
:0E05DC000000000008180000000000000000F1
:0E069E00E4FFFE0FBF00010EBE75F8BF31F580
:0106AC00222B
:0806AD0012066512053080FB06
:1006650075A88F758855758919E4F58CF58A758D8A
:050675003C758BB02272
:10053000E5214520700FAF23AE2212044DC291D2A7
:1005400090C292802CE52164014520700FAE0AAF65
:100550000B12044DD291C290C2928015E521640223
:100560004520700DAE0EAF0F12044DC291C290D255
:08057000927FC47E0902064AD5
:04044D00AB07AA0649
:100451007528007529037C007D0AAF03AE021201E5
:10046100E7E52925E02418F8A60408A6057C007D07
:100471000AAF03AE021201E7AA06AB07E529152967
:1004810070021528E529B4FFCDE528B4FFC8E4F5CD
:1004910028F529C37403952925E02418F8E6FE08F8
:1004A100E6FF12068DEF12060F0529E529700205F8
:0F04B10028D39403E5286480948040D702069EE8
:10060F00E4FEEFA806088002C313D8FC30E004D242
:0D061F00B68002C2B6D2B7C2B70EBE08E563
:01062C0022AB
:10064A007D3CD3EF9400EE9400400FDDFE7D3BDD50
:0A065A00FE7D3CEF1F70EB1E80E8F0
:010664002273
:030013000205EBF8
:1005EB00C0E0C0D0C3E5219402E5209400500A0579
:1005FB0021E521700A05208006752000752100D0A9
:04060B00D0D0E03239
:0300030002062DC5
:10062D00C0E0E5114510700AF58CF58A758D3C75A5
:0D063D008BB00511E51170020510D0E03200
:03000B0002067A70
:10067A00C0E0758C00758A000513E5137002051237
:03068A00D0E0328B
:03001B000204C01C
:1004C000C0E0C0F0C083C082C0D075D000C000C002
:1004D00001C002C003C004C005C006C007758D3C42
:1004E000758BB00515E5157002051464144514707C
:1004F0002412031875160075170175100075110088
:1005000075140075150075120075130012066575D7
:100510008C00758A00D007D006D005D004D003D057
:1005200002D001D000D0D0D082D083D0F0D0E03241
:10031800E5137F00FE7C007D641201E7EF7F00FE9D
:100328007C007D641201E7AC06AD07E412011B8F67
:10033800278E268D258C24AF8CEFFEAD8A7C00E4B9
:100348002DFFEC3EFE7C277D101201E7AC06AD07C1
:10035800E412011BAB27AA26A925A82412002512FE
:1003680001548F0F8E0E8D0D8C0CAE10AF117C00CA
:100378007DC81201E77C007D121201D5C3E5119FEB
:10038800FBE5109EFAAE10AF117C137D881201E7D1
:100398007C007D381201D5EF2BF523EE3AF522AF1C
:1003A80023AB07FAE4F9F87F407E427D0F12057807
:0803B8008F0B8E0A8D098C08E1
:0103C000221A
:10068D00EF90069493FF223F065B4F666D7D077FCB
:01069D006FED
:10001E000201C0E86480F8E933E83360110460F04F
:10002E00ED33EC337009E8FCE9FDEAFEEBFF220448
:10003E0060DED3EB9FEA9EE99DE8C2E78CF0C2F743
:10004E0095F0400CE8CCF8E9CDF9EACEFAEBCFFB0F
:10005E0012018B85D0F05804700320D5B3E80470DC
:10006E00075002B2D50201CA92D5EC0460F7E4CC77
:10007E00C0E0C398F8603B94186008400DD0E0FBD8
:10008E000201A2E4FBFAC9FC8028E830E406E4C9C8
:10009E00FBE4CAFCE830E305E4C9CACBFCE854072C
:1000AE006010F8C3E913F9EA13FAEB13FBEC13FC37
:1000BE00D8F130F52FC3E49CFCEF9BFFEE9AFEEDDA
:1000CE0099FDD0E0FBEF4E4D4C701222DB03020186
:1000DE00C7EC2CFCEF33FFEE33FEED33FDED30E7D6
:1000EE00EB0201A2EF2BFFEE3AFEED39FDD0E0FB65
:1000FE0050130BBB00030201CAED13FDEE13FEEF0E
:08010E0013FFEC13FC0201A237
:1001160075F020800E75F010800575F0087D007E64
:10012600007F003392D530D50312023CEC334010E9
:10013600EF33FFEE33FEED33FDEC33FCD5F0ED226D
:0E014600E5F0247EA2D513CC92E7CDCEFF22A9
:10015400EDD2E7CD33EC3392D524814006E4FFFEA3
:10016400FDFC22FCE4CFCECDCC24E0501174FF8002
:10017400EDC3CC13CCCD13CDCE13CECF13CF04709F
:07018400F030D5DE02023C61
:10018B00E9D2E7C933E833F892D5EDD2E7CD33ECBA
:07019B0033FC5002B2D52233
:1001A200EC30E7100FBF000C0EBE00080DBD0004BE
:1001B2000BEB6014A2D5EB13FCED92E7FD2274FF6A
:1001C200FCFDFEFF22E480F8A2D574FF13FC7D80C3
:0301D200E480EFD7
:030000000203C137
:0C03C100787FE4F6D8FD7581290204085D
:1001D500EF8DF0A4A8F0CF8CF0A428CE8DF0A42E3E
:0201E500FE22F8
:1001E700BC000BBE0029EF8DF084FFADF022E4CCFC
:1001F700F875F008EF2FFFEE33FEEC33FCEE9DECC5
:10020700984005FCEE9DFE0FD5F0E9E4CEFD22ED0A
:10021700F8F5F0EE8420D21CFEADF075F008EF2F54
:10022700FFED33FD4007985006D5F0F222C398FD45
:050237000FD5F0EA22E2
:10057800C2D5E830E70FB2D5E4C39BFBE49AFAE4AE
:1005880099F9E498F8EC30E717B2D51205AE1202E3
:1005980086E4C39BFBE49AFAE499F9E498F88003AB
:1005A80012028630D50DE4C39FFFE49EFEE49DFD54
:0405B800E49CFC22A1
:0E023C00C3E49FFFE49EFEE49DFDE49CFC22D3
:1003CD000206ADE493A3F8E493A34003F68001F293
:1003DD0008DFF48029E493A3F85407240CC8C33331
:1003ED00C4540F4420C8834004F456800146F6DF00
:1003FD00E4800B01020408102040809005BCE47ECF
:10040D00019360BCA3FF543F30E509541FFEE493F4
:10041D00A360010ECF54C025E060A840B8E493A3BB
:10042D00FAE493A3F8E493A3C8C582C8CAC583CAE6
:10043D00F0A3C8C582C8CAC583CADFE9DEE780BE9E
:0105EA000010
:10024A0075F008758200EF2FFFEE33FECD33CDCC6B
:10025A0033CCC58233C5829BED9AEC99E5829840EE
:10026A000CF582EE9BFEED9AFDEC99FC0FD5F0D6CB
:10027A00E4CEFBE4CDFAE4CCF9A88222B800C1B9F5
:10028A000059BA002DEC8BF084CFCECDFCE5F0CB33
:10029A00F97818EF2FFFEE33FEED33FDEC33FCEB6C
:1002AA0033FB10D703994004EB99FB0FD8E5E4F927
:1002BA00FA227818EF2FFFEE33FEED33FDEC33FC14
:1002CA00C933C910D7059BE99A4007EC9BFCE99A08
:1002DA00F90FD8E0E4C9FAE4CCFB2275F010EF2F4D
:1002EA00FFEE33FEED33FDCC33CCC833C810D7074D
:1002FA009BEC9AE899400AED9BFDEC9AFCE899F888
:0E030A000FD5F0DAE4CDFBE4CCFAE4C8F9221A
:00000001FF
