:10071900502D4C3A00487A005A2D4B2D423A00256B
:0C072900005A2D513A006D7300757300EA
:1006C90002240000021000000212000002140000BF
:1006D9000216000002260000040C000000000408B5
:1006E900000000000C1800000000000000000000DD
:0206F9000000FF
:0B07D50012075012079912031F80FB4F
:1007990075A88F758855758919E4F58CF58A758D55
:0507A9003C758BB0223D
:10031F00E5254524701B7BFF7A0779197F8012062C
:10032F005FAD27AC267F871205287F8D1206598077
:10033F0075E5256401452470327BFF7A07792A7FA2
:10034F008012065FAC0AAD0B7F87120528C3E52725
:10035F009414E52694007BFF50067A07792F8004CA
:10036F007A0779327F8D12065F803BE5256402455F
:10037F00247052AD27AC267F801205287F86120687
:10038F0059AC0AAD0B7F88120528C3E5279414E5F5
:10039F002694007BFF50067A07792F80047A07791D
:1003AF00327F8E12065F7BFF7A0779217FC012069C
:1003BF005FAC0EAD0F7FC71205287BFF7A07792838
:1003CF007FCD12065F7FC47E091207357F011207AA
:0803DF006B7F017E000207356F
:060528008F2CAB05AA04B4
:10052E00752D00752E057C007D0AAF03AE021201FB
:10053E00EEED2430FFE43CFEE52E25E02418F8A66F
:10054E000608A6077C007D0AAF03AE021201EEAAD2
:10055E0006AB07E52E152E7002152DE52EB4FFC63F
:10056E00E52DB4FFC1AF2C12076BE4F52DF52EE58A
:10057E002E25E02418F808E6FF1207827F017E0080
:10058E00120735052EE52E7002052DD39405E52DA7
:06059E006480948040D946
:0105A4002234
:100735007D3CD3EF9400EE9400400FDDFE7D3BDD64
:0A074500FE7D3CEF1F70EB1E80E804
:01074F002287
:1007AE007580FFC2A2C2A0D2A1D2A200E58020E72E
:0407BE00EFC2A222C2
:10076B001207AEC2A2C2A0C2A18F80D2A200C2A2A7
:07077B007F017E000207353B
:100782001207AEC2A2D2A0C2A18F80D2A200C2A280
:070792007F017E0002073524
:100750007F3812076B7F0C12076B7F0612076B7FC7
:0B0760000112076B7F017E00020735CD
:060659007BFF7A07791E09
:10065F008B2C8A2D892E12076BAB2CAA2DA92E124B
:10066F0001D5D39400401A052EE52E7002052D14E6
:10067F00F91201D5FF1207827F017E001207358024
:02068F00D8226F
:0300130002069151
:10069100C0E0C0D075D000C005C006C0077F011200
:1006A100076BC3E5259402E5249400500A0525E56E
:1006B10025700A05248006752400752500D007D011
:0806C10006D005D0D0D0E032D4
:030003000206FCF6
:1006FC00C0E0E5114510700AF58CF58A758D3C75D6
:0D070C008BB00511E51170020510D0E03230
:03000B000207C227
:1007C200C0E0758C00758A000513E51370020512EE
:0307D200D0E03242
:03001B000205A536
:1005A500C0E0C0F0C083C082C0D075D000C000C01C
:1005B50001C002C003C004C005C006C007758D3C5C
:1005C500758BB00515E51570020514641445147096
:1005D500241203E7751600751701751000751100D3
:1005E50075140075150075120075130012079975BD
:1005F5008C00758A00D007D006D005D004D003D072
:1006050002D001D000D0D0D082D083D0F0D0E0325B
:1003E700E5137F00FE7C007D641201EEEF7F00FEC7
:1003F7007C007D641201EEAC06AD07E412011B8F91
:100407002B8E2A8D298C28AF8CEFFEAD8A7C00E4D9
:100417002DFFEC3EFE7C277D101201EEAC06AD07EA
:10042700E412011BAB2BAA2AA929A828120025121E
:1004370001548F0F8E0E8D0D8C0CAE10AF117C03F7
:100447007DE81201EEC3E5119FCFE5109ECF24FF93
:10045700F527EF34FFF526C3E5279414E526940026
:100467005015AC26AD277E037FE81201EEE48F0B13
:100477008E0AF509F50822AE26AF27AB07AA06E4D0
:10048700F9F87F407E427D0FFC1206158F0B8E0A0E
:040497008D098C0837
:01049B00223E
:10001E000201C0E86480F8E933E83360110460F04F
:10002E00ED33EC337009E8FCE9FDEAFEEBFF220448
:10003E0060DED3EB9FEA9EE99DE8C2E78CF0C2F743
:10004E0095F0400CE8CCF8E9CDF9EACEFAEBCFFB0F
:10005E0012018B85D0F05804700320D5B3E80470DC
:10006E00075002B2D50201CA92D5EC0460F7E4CC77
:10007E00C0E0C398F8603B94186008400DD0E0FBD8
:10008E000201A2E4FBFAC9FC8028E830E406E4C9C8
:10009E00FBE4CAFCE830E305E4C9CACBFCE854072C
:1000AE006010F8C3E913F9EA13FAEB13FBEC13FC37
:1000BE00D8F130F52FC3E49CFCEF9BFFEE9AFEEDDA
:1000CE0099FDD0E0FBEF4E4D4C701222DB03020186
:1000DE00C7EC2CFCEF33FFEE33FEED33FDED30E7D6
:1000EE00EB0201A2EF2BFFEE3AFEED39FDD0E0FB65
:1000FE0050130BBB00030201CAED13FDEE13FEEF0E
:08010E0013FFEC13FC0201A237
:1001160075F020800E75F010800575F0087D007E64
:10012600007F003392D530D503120243EC334010E2
:10013600EF33FFEE33FEED33FDEC33FCD5F0ED226D
:0E014600E5F0247EA2D513CC92E7CDCEFF22A9
:10015400EDD2E7CD33EC3392D524814006E4FFFEA3
:10016400FDFC22FCE4CFCECDCC24E0501174FF8002
:10017400EDC3CC13CCCD13CDCE13CECF13CF04709F
:07018400F030D5DE0202435A
:10018B00E9D2E7C933E833F892D5EDD2E7CD33ECBA
:07019B0033FC5002B2D52233
:1001A200EC30E7100FBF000C0EBE00080DBD0004BE
:1001B2000BEB6014A2D5EB13FCED92E7FD2274FF6A
:1001C200FCFDFEFF22E480F8A2D574FF13FC7D80C3
:0301D200E480EFD7
:0300000002049C5B
:0C049C00787FE4F6D8FD75812E0204E3A1
:1001D500BB010689828A83E0225002E722BBFE0228
:0901E500E32289828A83E493225B
:1001EE00BC000BBE0029EF8DF084FFADF022E4CCF5
:1001FE00F875F008EF2FFFEE33FEEC33FCEE9DECBE
:10020E00984005FCEE9DFE0FD5F0E9E4CEFD22ED03
:10021E00F8F5F0EE8420D21CFEADF075F008EF2F4D
:10022E00FFED33FD4007985006D5F0F222C398FD3E
:05023E000FD5F0EA22DB
:10061500C2D5E830E70FB2D5E4C39BFBE49AFAE410
:1006250099F9E498F8EC30E717B2D512064B1202A7
:100635008DE4C39BFBE49AFAE499F9E498F8800306
:1006450012028D30D50DE4C39FFFE49EFEE49DFDAF
:04065500E49CFC2203
:0E024300C3E49FFFE49EFEE49DFDE49CFC22CC
:1004A8000207D5E493A3F8E493A34003F68001F28E
:1004B80008DFF48029E493A3F85407240CC8C33355
:1004C800C4540F4420C8834004F456800146F6DF24
:1004D800E4800B01020408102040809006C9E47EE5
:1004E800019360BCA3FF543F30E509541FFEE49319
:1004F800A360010ECF54C025E060A840B8E493A3E0
:10050800FAE493A3F8E493A3C8C582C8CAC583CA0A
:10051800F0A3C8C582C8CAC583CADFE9DEE780BEC2
:0106FB0000FE
:1002510075F008758200EF2FFFEE33FECD33CDCC64
:1002610033CCC58233C5829BED9AEC99E5829840E7
:100271000CF582EE9BFEED9AFDEC99FC0FD5F0D6C4
:10028100E4CEFBE4CDFAE4CCF9A88222B800C1B9EE
:100291000059BA002DEC8BF084CFCECDFCE5F0CB2C
:1002A100F97818EF2FFFEE33FEED33FDEC33FCEB65
:1002B10033FB10D703994004EB99FB0FD8E5E4F920
:1002C100FA227818EF2FFFEE33FEED33FDEC33FC0D
:1002D100C933C910D7059BE99A4007EC9BFCE99A01
:1002E100F90FD8E0E4C9FAE4CCFB2275F010EF2F46
:1002F100FFEE33FEED33FDCC33CCC833C810D70746
:100301009BEC9AE899400AED9BFDEC9AFCE899F880
:0E0311000FD5F0DAE4CDFBE4CCFAE4C8F92213
:00000001FF
